:020000040800F2
:10000000C0060024390300084315000897130008B0
:100010004115000839060008F91700080000000023
:10002000000000000000000000000000471500086C
:100030003B060008000000004515000849150008AF
:100040005303000853030008530300085303000838
:100050005303000853030008530300085303000828
:100060005303000853030008530300085303000818
:100070005303000853030008530300085303000808
:1000800053030008530300085303000853030008F8
:1000900053030008530300085303000853030008E8
:1000A00053030008530300085303000853030008D8
:1000B00053030008530300085303000853030008C8
:1000C00053030008530300085303000853030008B8
:1000D00053030008530300085303000853030008A8
:1000E00053030008530300080000000053030008F6
:1000F0005303000853030008530300085303000888
:100100005303000853030008530300085303000877
:100110005303000853030008530300085303000867
:100120005303000853030008530300085303000857
:100130005303000853030008530300085303000847
:1001400000000000000000000000000000000000AF
:100150005303000853030008530300085303000827
:100160005303000853030008530300085303000817
:100170005303000853030008530300080000000065
:1001800053030008530300085303000853030008F7
:1001900053030008530300085303000853030008E7
:1001A00053030008530300085303000853030008D7
:1001B00053030008530300085303000853030008C7
:1001C00053030008530300085303000853030008B7
:1001D00053030008530300085303000853030008A7
:1001E0005303000853030008530300085303000897
:1001F0005303000853030008530300085303000887
:100200005303000853030008530300085303000876
:100210005303000853030008530300085303000866
:1002200053030008530300085303000800000000B4
:1002300053030008530300080000000053030008A4
:100240005303000853030008530300085303000836
:100250005303000853030008530300085303000826
:100260005303000853030008530300085303000816
:100270005303000853030008530300080000000064
:100280005303000853030008530300080000000054
:10029000000000005303000800F002F800F03CF8F2
:1002A0000AA090E8000C82448344AAF10107DA45D1
:1002B00001D100F031F8AFF2090EBAE80F0013F0E7
:1002C000010F18BFFB1A43F001031847C0160000C6
:1002D000E0160000103A24BF78C878C1FAD8520757
:1002E00024BF30C830C144BF04680C6070470000B0
:1002F0000023002400250026103A28BF78C1FBD82F
:10030000520728BF30C148BF0B6070471FB501F0CE
:1003100027FB1FBD10B510BD00F058F81146FFF7C0
:10032000F5FF01F0EDFA00F076F803B4FFF7F2FF05
:1003300003BC00F07DF800000948804709480047E9
:10034000FEE7FEE7FEE7FEE7FEE7FEE7FEE7FEE785
:10035000FEE7FEE704480549054A064B70470000E2
:100360004D16000899020008C0000024C0060024B1
:10037000C0020024C00200244FF0000200B5134662
:1003800094469646203922BFA0E80C50A0E80C50B5
:10039000B1F12001BFF4F7AF090728BFA0E80C5066
:1003A00048BF0CC05DF804EB890028BF40F8042B5F
:1003B00008BF704748BF20F8022B11F0804F18BFCC
:1003C00000F8012B7047704770477047754600F082
:1003D0002BF8AE4605006946534620F007008546D7
:1003E00018B020B5FFF7B6FFBDE820404FF000067B
:1003F0004FF000074FF000084FF0000BAC46ACE8A0
:10040000C009ACE8C009ACE8C009ACE8C00921F0FB
:1004100007018D46704710B50446AFF300802046B3
:10042000BDE81040FFF781BF00487047100000246E
:1004300001491820ABBEFEE726000200704700000D
:10044000BCB51248019000F0BDF801AC104D04207D
:100450002146A8470F48019021460420A84740F2B2
:10046000B340019004202146A8470B480190214643
:100470000420A84748F22900019004202146A847FB
:100480000648019021460420A847BCBD050058003D
:100490001D1800083C80EC00420E010018802C0062
:1004A000F8B59FED421AB4EEC10AF1EE10FA0ADB7C
:1004B0009FED3F2AB4EEC20AB0EE401AF1EE10FAF8
:1004C000C8BFB0EE421AB2EE040A012121EE001AB2
:1004D000002040F69903B6EEC11A81EE000ABCEE88
:1004E000C01A11EE102A08E001FB02F7A7F69807E0
:1004F0009F4204D3490089B201300928F4D901EEA2
:10050000101A4FF47A740523B8EEC11A20EE010ACE
:10051000B3EE091A80EE010A9FED261A20EE011AA9
:10052000BCEEC11A11EE101AB1FBF4F202FB141565
:1005300001E015460C46A9B2B1FBF3F2A1B2B1FB42
:10054000F3F102EB8207EF1B01EB8106A61B374399
:100550003F04EED0BCEEC00A10EE103A02E0A1B2A9
:1005600075084C08AEB2E90708BF14F00101F6D0D7
:100570000721B0FBF1F148F20102C1EBC101401AC1
:10058000F10001EBC337A1B20C4C02EBC1050A49E3
:1005900041EA00560A48A0473846A0472846A047E7
:1005A00030462146BDE8F840084700BF00000C4235
:1005B0000080894500007A443C808C00FB170008CD
:1005C0001C80EC002DE9F04387B04FF0000818487C
:1005D000184CCDF8188001220168042541F008016B
:1005E000016004210068012700F0080001900198D3
:1005F000204600F013F93821002220464FF0380938
:1006000000F00CF9CDE9025702AD0497032620460D
:100610000596294600F03CF820462946CDE9029788
:10062000CDE9048600F034F807B0BDE8F08300BFE0
:10063000E044025800100258FEE7704710B5044627
:1006400004E04FF47A7000F005F8013C002CF8D17A
:1006500010BD000070B56FF005010A4C0E1A21683C
:10066000B0B24FF6FA754862204600F03BFE2068B3
:1006700000E0466AB1B2A942FBD30248BDE870402F
:1006800000F074BE70000024EFF3108072B6FEE735
:100690002DE9FC4F5E4A0A275E4C02444FEAB22322
:1006A000A04208BF0927092B38BF4FEAB2274FF0F5
:1006B000000C009701274FF0000E00269EE007FA7D
:1006C00006F912EA090B00F094804A6802F0030868
:1006D000A8F1010ABAF1010F13D80324856804FABE
:1006E0000EF325EA0303CD6805FA0EF52B4383606C
:1006F0004368C2F3001523EA0903B5402B43436066
:1007000004E0B8F1030F4FF003041FD0C36804FAEC
:100710000EF5AB438D6805FA0EF52B43B8F1020FC9
:10072000C36013D16FF0030202EA560202440CF0D8
:100730001C03D2F820800F259D4028EA05080D698A
:1007400005FA03F343EA080313624A68036804FAEC
:100750000EF5AB4302F0030505FA0EF52B4312F438
:10076000403F036045D0664A13462B4C12680F2564
:1007700042F002021A601A6802F00202019226F0A8
:100780000302019B0CF00C0352F804809D40009F73
:1007900028EA050507FA03F32B4313514FF0B0483D
:1007A000D8F800204B6842EA0B05DF0258BF22EA66
:1007B0000B05164A1446C8F800509F02126842EA18
:1007C0000B0558BF22EA0B059F0325604FF0010778
:1007D000D4F8802042EA0B0558BF22EA0B05DB0360
:1007E000C4F88050E26F42EA0B0558BF22EA0B05BD
:1007F000E56701360EF1020E0CF1040C0A6832FABC
:1008000006F47FF45CAFBDE8FC8F00BF0400005825
:100810000000FEA70024025808040058002A08BF60
:10082000090481617047000001480068000C7047AE
:100830000010005C05480068704700BF2848007839
:1008400002490A6810440860704700BFBC000024D9
:1008500080B5032000F076F800F0BAF90F490A6875
:10086000C2F303220968D64B01F00F019A5C595C70
:1008700002F01F02D040D34A01F01F0120FA01F11B
:100880001160D14908600F2000F00AF808B101207A
:1008900080BD00F027F8002080BD00BF184402583A
:1008A00070B50F4E3178C1B104464FF47A70B0FB89
:1008B000F1F0C5490968B1FBF0F000F075FC0F2CB0
:1008C0004FF001050AD848B94FF0FF300022214609
:1008D000002500F017F8746000E00125284670BD7F
:1008E0000000002481B00648016841F00201016067
:1008F000006800F002000090009801B0704700BF4F
:10090000F444025880B5154B1B68C3F3022C8CF0DD
:10091000070EBEF1040F28BF4FF0040EBCF1030315
:100920004FF0FF3C38BF00230CFA0EFE21EA0E0107
:1009300099400CFA03F39A431143BDE8804000F05C
:10094000CDBF00BF05490A684FF6FF031A4060F3A8
:100950000A22034810430860704700BF0CED00E016
:100960000000FA05B0B5104D29684907296805D47B
:1009700001F00701081A18BF0120B0BD21F00701DE
:1009800008432860FFF756FF044655F8080C80041A
:1009900007D4FFF74FFF001BB0F57A7FF5D9012090
:1009A000B0BD0020B0BD00BF0C4802582DE9F8438F
:1009B000002800F0FE800446804B186800F00F000D
:1009C000884688420BD2186820F00F0040EA0800E1
:1009D0001860186800F00F00404540F0EA80206879
:1009E000B24F41070AD52169BA6902F070029142FB
:1009F00004D9BA6922F070021143B96101070AD51E
:100A00006169FA6902F07002914204D9FA6922F030
:100A100070021143F961C1060AD5A169FA6902F4AD
:100A2000E062914204D9FA6922F4E0621143F9616B
:100A300081060AD5E1693A6A02F07002914204D94E
:100A40003A6A22F070021143396281070AD5E168DF
:100A5000BA6902F00F02914204D9BA6922F00F027A
:100A60001143B961C10736D0B86920F47061D4E987
:100A7000010211430328B96105D0022807D1396862
:100A800089030DD495E03968890109D491E00128E2
:100A9000396802D1C90503D48BE0490740F1898048
:100AA0003969994621F0070108433861FFF7C2FE12
:100AB000064641F28835386900F038006168B0EBCD
:100AC000C10F06D0FFF7B6FE801BA842F3D9032062
:100AD00070E020684B4681070AD5E168BA6902F0E8
:100AE0000F02914204D2BA6922F00F021143B96198
:100AF000196801F00F0141450AD9196821F00F0169
:100B000041EA08011960196801F00F01414550D10F
:100B100041070AD52169BA6902F07002914204D2F4
:100B2000BA6922F070021143B96101070AD56169FF
:100B3000FA6902F07002914204D2FA6922F070025E
:100B40001143F961C1060AD5A169FA6902F4E062AC
:100B5000914204D2FA6922F4E0621143F9618006FD
:100B60000AD5E069396A01F07001884204D2396A15
:100B700021F070010843386200F02AF8B969C1F326
:100B800003210F4A515CBB6903F00F03D25C01F0F3
:100B90001F0120FA01F102F01F000A4A21FA00F0B9
:100BA0001060094A094800681160BDE8F843FFF782
:100BB00077BE012001B0BDE8F08300BF00200052E5
:100BC0007A1900080C000024080000240400002406
:100BD00036490869C0F3C20003280CD0022828D087
:100BE00048BB08688006374858BF70470968C1F39A
:100BF000C101C84070478A6A886AC0F3051CCB6A85
:100C0000486B03F00103C0F3CC00BCF1000F10FBF4
:100C100003F000EE100AB8EE400A0ED002F0030214
:100C2000022A0CD072B9086880060ED49FED241AEF
:100C300015E0204870471E487047002070479FED20
:100C40001F1A0CE09FED1C1A09E008681D4AC0F34A
:100C5000C10022FA00F001EE100AB8EE411A02EECD
:100C600010CA9FED193AB8EE422A086B6FF35F2065
:100C700081EE021A02EE100AB8EE422A086BC0F3A7
:100C8000462000EE032AB7EE000A013032EE000AD9
:100C900021EE000A01EE100AB8EE411A80EE010AB8
:100CA000BCEEC00A10EE100A704700BF00440258A4
:100CB00000093D0040787D010024744A20BCBE4BF1
:100CC0000024744C0090D00300000039F8B50028CF
:100CD00000F08E8104460078D14EC0074AD03069BA
:100CE00000F03801B06A102905D0182909D100F0A8
:100CF0000300022805D1306880033BD56068C8BB7B
:100D000076E1606868B1B0F5803F06D0B0F5A02FFD
:100D100030681CD140F480203060306840F480306E
:100D20001BE0306820F480303060306820F4802090
:100D30003060FFF77FFD0546306880031AD5FFF766
:100D400079FD401B64284FF00300F5D965E120F4DC
:100D500080303060306820F480203060FFF76AFD1A
:100D600005463068800305D4FFF764FD401B642806
:100D7000F7D951E12078800761D5306910F038014A
:100D8000B06A18D0182908BF5FEA807013D0E068F5
:100D90000028316838D021F0190108433060FFF78E
:100DA00049FD0546306840071FD4FFF743FD401B4F
:100DB0000228F7D930E130684007E06802D5002802
:100DC00000F01681316821F0190108433060FFF707
:100DD00031FD05463068400707D4FFF72BFD401B67
:100DE00002284FF00300F5D917E1FFF71DFD41F28E
:100DF0000301884219D820697168402821F47C31A8
:100E00001AD141F4003019E021F001003060FFF701
:100E100011FD05463068400711D5FFF70BFD401B5B
:100E200002284FF00300F5D9F7E0706820F0FE408B
:100E3000216940EA016001E041EA003070602078F9
:100E4000C00653D5306900F03801B06A082905D0D2
:100E500018290BD100F00300012807D13068C00524
:100E600019D5E069802840F0C38014E0E0690028CB
:100E7000306827D040F080003060FFF7DBFC05468B
:100E80003068C00507D4FFF7D5FC401B02284FF09F
:100E90000300F5D9C1E0FFF7C7FC41F20301884226
:100EA00008D8206A7168202821F0F8411BD141F050
:100EB00080401AE0F06820F07C50216A40EA01602E
:100EC000F06013E020F080003060FFF7B3FC0546CF
:100ED0003068C0050AD5FFF7ADFC401B02284FF073
:100EE0000300F5D999E041EA80607060207800073E
:100EF00023D560690028706F0ED040F00100706744
:100F0000FFF798FC0546706F800716D4FFF792FC38
:100F1000401B0228F7D97FE020F001007067FFF73F
:100F200089FC0546706F800707D5FFF783FC401BDF
:100F300002284FF00300F5D96FE02078800623D512
:100F4000A069002830680ED040F480503060FFF770
:100F500071FC05463068800416D4FFF76BFC401B1B
:100F60000228F7D958E020F480503060FFF762FC87
:100F700005463068800407D5FFF75CFC401B02285B
:100F80004FF00300F5D948E02078400732D4656A75
:100F9000002D00F0EF80306900F03800182850D1A3
:100FA000B16A012D306B23D001F00302A36A9A428B
:100FB0001ED1C1F30511E26A914219D10146226B9B
:100FC0006FF35F21013A914212D1C0F34621626B67
:100FD000013A91420CD1C0F30641A26B013A914211
:100FE00006D1C0F30660E16B0139884200F0C2808F
:100FF000012012E0D6F8000440F48070C6F8000426
:10100000FFF718FC0546D6F80004C0050AD4FFF720
:1010100011FC401B6428F6D9032001B0F0BD00BFCD
:1010200000440258A06860B3012806D00528306F3C
:1010300040F0A28040F004003067306F40F00100C3
:10104000A0E0306820F080703060FFF7F3FB022DE5
:1010500005460AD1306880012CD5FFF7EBFB401B19
:1010600002284FF00300F5D9D7E73068800140F13E
:101070008180FFF7DFFB401B02284FF00300F4D90B
:10108000CBE7306F20F001003067306F20F00400B4
:101090003067FFF7CFFB054641F28837306F800796
:1010A0007FF575AFFFF7C6FB401BB8424FF003005A
:1010B000F4D9B2E7B06A40F2F3318843A16A226BF7
:1010C0000843511E626B4FF47E4303EB4222E36AF6
:1010D0006FF35F2192B240EA0310B0625018A16B27
:1010E0004FF4FE0202EB014101F4FE010844E16B02
:1010F0004FF0FE4202EB016101F0FE410844306313
:101100004FF6F871F06A20F00100F062706B8843CE
:10111000A16C40EAC1007063F06A20F00C00216C01
:101120000843F062F06A20F00200616C0843F0624C
:10113000F06A40F48030F062F06A40F40030F0620F
:10114000F06A40F48020F062F06A40F00100F06242
:10115000306840F080703060FFF76CFB0446306808
:10116000800107D4FFF766FB001B02284FF0030045
:10117000F5D952E7002050E720F001003067306FCA
:1011800020F004003067FFF755FB054641F2883731
:10119000306F80073FF5FBAEFFF74CFB401BB842BA
:1011A0004FF00300F4D938E7411E0020B0EB116F77
:1011B00001D001207047044A5160F021034B19709F
:1011C000072190601160704710E000E023ED00E01F
:1011D00090F83C20012A4FF0020233D070B5012371
:1011E000604E80F83C3080F83D20026842F4806315
:1011F0005468B342936802BF24F470044D682C43D2
:10120000B2F1804F24F070050C6845EA0405556082
:101210000BD04E4CA2421CBF4D4CA24205D04D4CAF
:10122000A2421CBF4C4CA2420ED123F0800389681D
:10123000194391600121002280F83D1080F83C2084
:10124000BDE8704010467047444CA242EDD0444C7B
:10125000A24218BFB242E8D0ECE700BF60B310B5BD
:10126000044690F83D0028B9002084F83C00204650
:1012700000F024F8022084F83D00211D206800F0D1
:101280003FFA012084F8480084F83E0084F83F00CB
:1012900084F8400084F8410084F8420084F8430058
:1012A00084F8440084F8450084F8460084F8470038
:1012B00084F83D00002010BD0120704700689F4960
:1012C000884218BF704781B00548016841F020018D
:1012D0000160006800F020000090009801B07047A5
:1012E000E844025890F83D1001291DD1022180F8F0
:1012F0003D100168B1F1804F0BD0144881421CBFF2
:101300001348814205D0134881421CBF12488142D4
:101310000CD18868144A0240062A4FF0000018BF1A
:10132000B2F5803F0BD17047012070470B488142D6
:10133000EFD00B488142ECD00A488142E9D00868DE
:1013400040F0010008600020704700BF000400402A
:1013500000080040000C0040001800400000014060
:101360000040014000040140070001000146006800
:10137000026A41F211131A4208D1026A40F2444350
:101380001A4203D1026822F0010202600122002009
:1013900081F83D207047FEE72DE9F04F87B000202F
:1013A000534C544E0690514804F580570168012271
:1013B00041F0100101604FF0040801684FF0010B8B
:1013C00001F0100101910199016841F08001016073
:1013D000016801F0800101910199016841F001016A
:1013E0000160016801F0010101910199016841F07A
:1013F00008010160016801F008010191019901688B
:1014000041F0020101600421006800F00200019037
:1014100001983846B047382100223846B0470221AB
:1014200000222046B04704F5406540F20121012228
:101430002846B0470E2100222846B04704F58069AF
:10144000402101224846B0474FF4607100224846CF
:10145000B04702AE284C4FF0030A38463146CDE97A
:10146000028BCDF810B0CDF814A0A0473820CDE9FC
:10147000020B4FF0000838463146CDE9048AA047F8
:1014800002203146CDE9020BCDE9048A1848A04775
:101490004FF40070CDE9020B0020CDE9040028468E
:1014A00031460027A04728463146CDE902BBCDE9A9
:1014B00004BAA0470E20CDE9020B28463146CDE9FB
:1014C000047AA0474020CDE9020B48463146CDE9D9
:1014D00004BAA0474FF46070CDE9020B484631468C
:1014E000CDE9047AA04707B0BDE8F08FE044025888
:1014F000000002581D080008910600081FB50024CE
:101500000D480E49F0220394CDE90144C0E90012D0
:101510004FF6FF71C0E902418461FFF79FFE08B1F9
:10152000FFF7B2F8044801A901940394FFF750FEB5
:1015300008B1FFF7A9F81FBD700000240014004097
:10154000FEE7FEE770477047FFF778B9B0B59CB08B
:1015500009A83B4C3B4D4C21FEF70EFF01A8202172
:10156000FEF70AFF0220FFF7FDF90020009028682F
:1015700020F001002860286800F001000090206839
:1015800040F440402060206800F440400090009803
:1015900020688004FCD52C48215841F002012150DC
:1015A000205800F002000090009800200090206871
:1015B00040F440402060206800F4404000902868DB
:1015C00040F001002860286800F0010000900098B9
:1015D00020688004FCD5012009904FF480300A90E7
:1015E00002200521CDE912001491C021CDE915108A
:1015F000CDE9170008240025199409A8CDE91A554A
:10160000FFF764FB18B1EFF3108072B6FEE73F20DE
:1016100001900320CDE90205402004944FF480613D
:10162000CDE90500CDE9071001A80421FFF7BEF9B7
:1016300018B1EFF3108072B6FEE71CB0B0BD00BF6A
:10164000184802582C040058DCFCFFFF23480168AE
:10165000214A41F470010160106800F00F00062873
:1016600004D81068072161F30300106010B51C480E
:1016700001681C4C41F00101016000210161036817
:101680002340036013681B0704D51368072464F321
:1016900003031360144A8161C16101628262134ACB
:1016A000C262134A026341638263C163026441649C
:1016B000026822F48022026001660E480068B1EBE5
:1016C000507FBDE8104002D101200B49086043F271
:1016D000D2000A49086070470020005288ED00E0FF
:1016E000004402587FEDF6EA000202020000FF010A
:1016F000800201010010005C08810051004000528E
:10170000F0B5B0F1804F0368334A05D0334CA042A6
:101710001CBF334CA04234D123F070034C682343E8
:1017200002F58044041BB4FA84F44FEA541C02F519
:101730008844041BB4FA84F44FEA541E02F5904422
:10174000041BB4FA84F4640923F44073CD682B437A
:1017500023F080034E690D6833438F68002C0360CB
:10176000C762856208BFBEF1000F05D190421CBF61
:1017700002F5806290422BD1096901630121416128
:10178000F0BD184CA042C7D0174CA04218BF9042E1
:10179000C2D002F58044154D041BB4FA84F44FEA1C
:1017A000541C02F58844041BB4FA84F44FEA541E16
:1017B00002F59044041BB4FA84F4A8424FEA54148E
:1017C000C2D00B4DA842BFD00A4DA842BCD0BFE743
:1017D000BCF1000FD2D0CFE7000001400004004070
:1017E00000080040000C004000040140004001409F
:1017F0000048014000440140FEE7E0B5010E8DF8CD
:101800000710010C8DF80610010A8DF8051001A9CA
:101810008DF80400042000F001F88CBD2DE9F84398
:101820000E462C4C2C4F0546042101222046B84779
:10183000082100222046B847202100222046B84730
:101840000120FEF707FF082100222046B946B847CD
:101850000120FEF7FFFEA6F1010823E018F805704D
:1018600000261CE078B21021B0F1FF3F01DD00221C
:1018700000E001222046FEF7D1FF0120FEF7EAFE3C
:10188000202101222046FEF7C9FF0120FEF7E2FEDB
:101890002021002220467F00FEF7C0FF0136072EE0
:1018A000E0D9013D002DD9D1102100222046C847A2
:1018B0000120FEF7CFFE082101222046C847012063
:1018C000FEF7C8FE0821002220464B4601B0BDE8C5
:1018D000F0431847001002581D08000800F00F02DE
:1018E000054B1A44054BB0F1FF3F4FEA0111C8BF49
:1018F000C2181170704700BF14ED00E000E400E072
:10190000154CFEF7A5FFFFF721FEFFF745FDFFF79A
:10191000F5FDFEF795FD9FED110AFEF7C1FD4FF4B1
:101920007A70FEF78BFE022101222046FEF776FF39
:101930004FF47A70FEF782FE022100222046FEF765
:101940006DFF4FF47A70FEF779FE022101222046E6
:10195000FEF764FFECE700BF0000025800808943F7
:10196000F1EE100A4FF6FF71C0F2C03120EA01001B
:1019700040F04070E1EE100A7047000000000102E4
:10198000030401020304060708090000B019000857
:101990000000002410000000D4020008C019000854
:1019A00010000024B0060000F00200080000000053
:1019B00001000000100000000090D0030090D00350
:040000050800029954
:00000001FF
